:100000000C9446000C9465000C9465000C946500FB
:100010000C9465000C9465000C9465000C946500CC
:100020000C9465000C9465000C9465000C946500BC
:100030000C9465000C94E3000C9465000C9465002E
:100040000C9465000C9465000C9465000C9465009C
:100050000C9465000C9465000C9465000C9465008C
:100060000C9465000C9465000C9465000C9465007C
:100070000C9465000C9465000C9465000C9465006C
:100080000C9465000C9465000C94650011241FBE4F
:10009000CFEFD0E4DEBFCDBF11E0A0E0B1E0E4EBF4
:1000A000F9E000E00BBF02C007900D92A631B10746
:1000B000D9F721E0A6E1B1E001C01D92AC34B2074E
:1000C000E1F70E9445030C94D8040C940000CF93F0
:1000D000DF9300D000D0CDB7DEB769837A838B83FE
:1000E0009C8389819A81AB81BC818093000190932C
:1000F0000101A0930201B09303018091000190914E
:100100000101A0910201B091030180931701909326
:100110001801A0931901B0931A0100000F900F90DD
:100120000F900F90DF91CF910895CF93DF93CDB7CC
:10013000DEB781E890E02BE0FC01208388E890E0C6
:100140002DE730E0FC01318320838FE690E022E050
:10015000FC01208384E890E0FC01118210828091F0
:10016000000190910101A0910201B09103018093DF
:10017000170190931801A0931901B0931A018FE50C
:1001800090E02FE530E0F90120812068FC01208318
:100190000000DF91CF910895CF93DF93CDB7DEB705
:1001A00081E890E0FC0110820000DF91CF9108957A
:1001B000CF93DF93CDB7DEB781E0809316010000C7
:1001C000DF91CF9108951F920F9200905F000F92E0
:1001D000112400905B000F922F933F934F935F93F6
:1001E0006F937F938F939F93AF93BF93EF93FF93FF
:1001F000CF93DF93CDB7DEB78091170190911801AF
:10020000A0911901B0911A010197A109B109809338
:10021000170190931801A0931901B0931A018091CE
:10022000170190911801A0911901B0911A01892B21
:100230008A2B8B2B91F40E94D80080910001909121
:100240000101A0910201B0910301809317019093E5
:100250001801A0931901B0931A010000DF91CF910A
:10026000FF91EF91BF91AF919F918F917F916F918E
:100270005F914F913F912F910F9000925B000F90F3
:1002800000925F000F901F901895CF93DF9300D0DE
:100290001F92CDB7DEB789837B836A8389818A30D9
:1002A00031F48A819B81BC018DE00E94450180EC84
:1002B00090E0FC018081882F90E080729927892B43
:1002C000B1F386EC90E02981FC01208380E090E08E
:1002D0000F900F900F90DF91CF910895CF93DF9300
:1002E000CDB7DEB78AE790E02AE730E0F901208158
:1002F000206EFC0120830000DF91CF910895CF9301
:10030000DF931F92CDB7DEB789838CE790E0298118
:10031000283028F02CE730E0F901208101C0298144
:10032000FC01208310921B0106C0000080911B017C
:100330008F5F80931B0180911B018F30B0F3000011
:100340000F90DF91CF910895CF93DF93CDB7DEB7B4
:100350002C970FB6F894DEBF0FBECDBF6D837E83A2
:100360008F83988729873A874B875C878D819E8109
:10037000AF81B88529853A854B855C85BC01CD0167
:100380000E94B604DC01CB0189839A83AB83BC83D2
:1003900089819A81AB81BC81892B8A2B8B2B29F493
:1003A00089859A85AB85BC8511C089859A85AB8581
:1003B000BC858D839E83AF83B88789819A81AB8109
:1003C000BC8189879A87AB87BC87D0CFBC01CD0120
:1003D0002C960FB6F894DEBF0FBECDBFDF91CF9144
:1003E0000895CF93DF9300D0CDB7DEB79A8389838A
:1003F00089819A81892BA9F480911C018095809331
:100400001C0180911C01882321F480E00E947F015F
:100410000BC080911C018F3F39F487E00E947F015F
:1004200003C01A82198201C0000089819A81892B38
:1004300009F07AC088E790E0FC0180819181909377
:100440001E0180931D0180911D0190911E019370EA
:1004500090931E0180931D0180911C018F3F81F5B7
:1004600080911D0190911E01883C914058F080912F
:100470001D0190911E018833924020F485E0809305
:10048000120151C080911D0190911E01883C914044
:1004900020F488E08093120146C080911D01909164
:1004A0001E018833924008F43EC080911D01909156
:1004B0001E0181159440B8F582E08093120133C08B
:1004C00080911C01882379F580911D0190911E0176
:1004D000883C914058F080911D0190911E01883315
:1004E000924020F485E0809313011DC080911D018E
:1004F00090911E01883C914020F484E08093130188
:1005000012C080911D0190911E018833924058F0D5
:1005100080911D0190911E018115944020F486E088
:100520008093130100C0000089819A810F900F9081
:10053000DF91CF910895CF93DF9300D0CDB7DEB791
:100540009A83898389819A8182309105A9F18330C8
:1005500091052CF4009749F0019759F136C083308A
:10056000910569F1049771F130C0809112018830D2
:1005700029F482E090E09A8389832AC08091120155
:10058000823029F481E090E09A83898321C08091B0
:100590001301843029F483E090E09A83898318C0A2
:1005A000809113018630A1F484E090E09A838983DE
:1005B0000FC01A8219820DC01A8219820AC01A82CB
:1005C000198207C01A82198204C01A82198201C0D6
:1005D000000089819A818230910569F1833091050B
:1005E0002CF40097B1F10197D9F03CC0833091050C
:1005F00069F0049709F036C080911501813059F1F6
:100600008091150186958093150125C08091150173
:10061000803819F180911501880F809315011DC054
:10062000809114018E3FD9F08091140186958068E5
:100630008093140114C0809114018F3E91F0809139
:100640001401882F90E0880F991F81608093140116
:1006500008C0000007C0000005C0000003C0000083
:1006600001C0000088E290E020911501FC01208388
:100670008BE290E020911401FC01208389819A8112
:100680000F900F90DF91CF9108950F931F93CF9309
:10069000DF93CDB7DEB72D970FB6F894DEBF0FBE50
:1006A000CDBF87E290E02FEFFC01208388E290E04D
:1006B000FC0110828AE290E02FEFFC0120838BE2A4
:1006C00090E0FC0110820E946E0180E291E09B8725
:1006D0008A878BE291E09D878C8782E090E0988703
:1006E0008F838FEF89878A859B852985FC012083ED
:1006F0002A853B8582E390E0A0E0B0E0F9018183A8
:100700009283A383B4832A853B858A859B85FC01DC
:1007100081819281A381B481F90185839683A78326
:10072000B0878A859B8521EF31E0FC0132872187E4
:100730008C859D852985FC0120832C853D8582E360
:1007400090E0A0E0B0E0F90181839283A383B483B9
:100750002C853D858C859D85FC0181819281A381BD
:10076000B481F90185839683A783B0878C859D85A5
:100770002BE932E0FC01328721878A859B85FC01C9
:1007800081819281A381B4818B839C83AD83BE835D
:1007900081E090E09A83898325C089819A81880FBE
:1007A000991F9E012F5F3F4F820F931F0996FC01F7
:1007B00080819181FC0121813281438154818B812F
:1007C0009C81AD81BE81BC01CD010E94A401DC01F0
:1007D000CB018B839C83AD83BE8389819A810196F3
:1007E0009A83898329813A818F81988528173907CF
:1007F000A0F28B819C81AD81BE81BC01CD010E94A4
:1008000067000E9495001A821982A0C089819A818E
:10081000880F991F9E012F5F3F4F820F931F0996EC
:10082000FC0180819181FC012581368147815085C1
:1008300089819A81880F991FBE016F5F7F4F860F54
:10084000971F0996FC0180819181FC018181928131
:10085000A381B481281739074A075B0709F045C00F
:1008600089819A81880F991F9E012F5F3F4F820FC8
:10087000931F0996FC010081118189819A81880F5B
:10088000991F9E012F5F3F4F820F931F0996FC0116
:1008900080819181FC012185328589819A81880F2F
:1008A000991FAE014F5F5F4F840F951F0996FC01A2
:1008B00080819181FC018081082E000C990BF90147
:1008C0000995F801808389819A81880F991F9E017B
:1008D0002F5F3F4F820F931F0996FC01808191810A
:1008E000FC01158216821782108689819A81880FF1
:1008F000991F9E012F5F3F4F820F931F0996FC01A6
:100900006081718189819A81880F991F9E012F5F73
:100910003F4F820F931F0996FC0180819181FC015A
:1009200025813681478150858B819C81AD81BE8137
:10093000820F931FA41FB51FFB0185839683A78396
:10094000B08789819A8101969A83898329813A8126
:100950008F8198852817390708F458CF00008091B7
:1009600016018823E1F3109216014DCFA1E21A2E51
:10097000AA1BBB1BFD010DC0AA1FBB1FEE1FFF1F43
:10098000A217B307E407F50720F0A21BB30BE40B93
:10099000F50B661F771F881F991F1A9469F76095DA
:1009A0007095809590959B01AC01BD01CF01089594
:0409B000F894FFCFE9
:1009B40001000000000000020000000045010000EA
:0609C40000000505FE80A5
:00000001FF
